{
  "contractName": "SmartICO",
  "abi": [
    {
      "inputs": [],
      "stateMutability": "nonpayable",
      "type": "constructor"
    },
    {
      "anonymous": false,
      "inputs": [
        {
          "indexed": false,
          "internalType": "address",
          "name": "_addr",
          "type": "address"
        },
        {
          "indexed": false,
          "internalType": "uint256",
          "name": "_uniqueId",
          "type": "uint256"
        },
        {
          "indexed": false,
          "internalType": "uint256",
          "name": "_season",
          "type": "uint256"
        },
        {
          "indexed": false,
          "internalType": "address",
          "name": "_owner",
          "type": "address"
        },
        {
          "indexed": false,
          "internalType": "string",
          "name": "_title",
          "type": "string"
        },
        {
          "indexed": false,
          "internalType": "uint256",
          "name": "_softCap",
          "type": "uint256"
        }
      ],
      "name": "LogCreated",
      "type": "event"
    },
    {
      "anonymous": false,
      "inputs": [
        {
          "indexed": false,
          "internalType": "address",
          "name": "_addr",
          "type": "address"
        },
        {
          "indexed": false,
          "internalType": "uint256",
          "name": "_value",
          "type": "uint256"
        }
      ],
      "name": "LogDeposit",
      "type": "event"
    },
    {
      "anonymous": false,
      "inputs": [
        {
          "indexed": false,
          "internalType": "address",
          "name": "_addr",
          "type": "address"
        },
        {
          "indexed": false,
          "internalType": "uint256",
          "name": "_season",
          "type": "uint256"
        },
        {
          "indexed": false,
          "internalType": "uint256",
          "name": "_uniqueId",
          "type": "uint256"
        },
        {
          "indexed": false,
          "internalType": "uint256",
          "name": "_total",
          "type": "uint256"
        }
      ],
      "name": "LogPicked",
      "type": "event"
    },
    {
      "anonymous": false,
      "inputs": [
        {
          "indexed": false,
          "internalType": "address",
          "name": "_addr",
          "type": "address"
        },
        {
          "indexed": false,
          "internalType": "uint256",
          "name": "_season",
          "type": "uint256"
        },
        {
          "indexed": false,
          "internalType": "uint256",
          "name": "_uniqueId",
          "type": "uint256"
        },
        {
          "indexed": false,
          "internalType": "uint256",
          "name": "_capital",
          "type": "uint256"
        }
      ],
      "name": "LogVoted",
      "type": "event"
    },
    {
      "anonymous": false,
      "inputs": [
        {
          "indexed": false,
          "internalType": "address",
          "name": "_addr",
          "type": "address"
        },
        {
          "indexed": false,
          "internalType": "uint256",
          "name": "_value",
          "type": "uint256"
        }
      ],
      "name": "LogWithdraw",
      "type": "event"
    },
    {
      "stateMutability": "payable",
      "type": "fallback"
    },
    {
      "inputs": [],
      "name": "eth",
      "outputs": [
        {
          "internalType": "uint256",
          "name": "",
          "type": "uint256"
        }
      ],
      "stateMutability": "view",
      "type": "function"
    },
    {
      "inputs": [],
      "name": "max",
      "outputs": [
        {
          "internalType": "uint256",
          "name": "",
          "type": "uint256"
        }
      ],
      "stateMutability": "view",
      "type": "function"
    },
    {
      "inputs": [],
      "name": "min",
      "outputs": [
        {
          "internalType": "uint256",
          "name": "",
          "type": "uint256"
        }
      ],
      "stateMutability": "view",
      "type": "function"
    },
    {
      "inputs": [],
      "name": "owner",
      "outputs": [
        {
          "internalType": "address",
          "name": "",
          "type": "address"
        }
      ],
      "stateMutability": "view",
      "type": "function"
    },
    {
      "inputs": [],
      "name": "season",
      "outputs": [
        {
          "internalType": "uint256",
          "name": "",
          "type": "uint256"
        }
      ],
      "stateMutability": "view",
      "type": "function"
    },
    {
      "inputs": [],
      "name": "totalValue",
      "outputs": [
        {
          "internalType": "uint256",
          "name": "",
          "type": "uint256"
        }
      ],
      "stateMutability": "view",
      "type": "function"
    },
    {
      "inputs": [],
      "name": "uniqueId",
      "outputs": [
        {
          "internalType": "uint256",
          "name": "",
          "type": "uint256"
        }
      ],
      "stateMutability": "view",
      "type": "function"
    },
    {
      "stateMutability": "payable",
      "type": "receive"
    },
    {
      "inputs": [],
      "name": "deposit",
      "outputs": [
        {
          "internalType": "bool",
          "name": "",
          "type": "bool"
        }
      ],
      "stateMutability": "payable",
      "type": "function"
    },
    {
      "inputs": [
        {
          "internalType": "uint256",
          "name": "_value",
          "type": "uint256"
        }
      ],
      "name": "withdraw",
      "outputs": [
        {
          "internalType": "bool",
          "name": "",
          "type": "bool"
        }
      ],
      "stateMutability": "payable",
      "type": "function"
    },
    {
      "inputs": [
        {
          "internalType": "string",
          "name": "__title",
          "type": "string"
        },
        {
          "internalType": "uint256",
          "name": "__softCap",
          "type": "uint256"
        }
      ],
      "name": "createProject",
      "outputs": [
        {
          "internalType": "bool",
          "name": "",
          "type": "bool"
        }
      ],
      "stateMutability": "nonpayable",
      "type": "function"
    },
    {
      "inputs": [
        {
          "internalType": "uint256",
          "name": "_val",
          "type": "uint256"
        },
        {
          "internalType": "uint256",
          "name": "_uniqueId",
          "type": "uint256"
        }
      ],
      "name": "vote",
      "outputs": [
        {
          "internalType": "bool",
          "name": "",
          "type": "bool"
        }
      ],
      "stateMutability": "nonpayable",
      "type": "function"
    },
    {
      "inputs": [
        {
          "internalType": "uint256",
          "name": "_uniqueId",
          "type": "uint256"
        }
      ],
      "name": "pick",
      "outputs": [
        {
          "internalType": "bool",
          "name": "",
          "type": "bool"
        }
      ],
      "stateMutability": "payable",
      "type": "function"
    },
    {
      "inputs": [],
      "name": "getProjects",
      "outputs": [
        {
          "components": [
            {
              "internalType": "uint256",
              "name": "_season",
              "type": "uint256"
            },
            {
              "internalType": "uint256",
              "name": "_uniqueId",
              "type": "uint256"
            },
            {
              "internalType": "address",
              "name": "_owner",
              "type": "address"
            },
            {
              "internalType": "string",
              "name": "_title",
              "type": "string"
            },
            {
              "internalType": "uint256",
              "name": "_softCap",
              "type": "uint256"
            },
            {
              "internalType": "uint256",
              "name": "_capital",
              "type": "uint256"
            },
            {
              "internalType": "uint256",
              "name": "_votes",
              "type": "uint256"
            },
            {
              "internalType": "enum SmartICO.State",
              "name": "_state",
              "type": "uint8"
            }
          ],
          "internalType": "struct SmartICO.Project[]",
          "name": "",
          "type": "tuple[]"
        }
      ],
      "stateMutability": "view",
      "type": "function"
    },
    {
      "inputs": [],
      "name": "getBalance",
      "outputs": [
        {
          "internalType": "uint256",
          "name": "",
          "type": "uint256"
        }
      ],
      "stateMutability": "view",
      "type": "function"
    },
    {
      "inputs": [
        {
          "internalType": "uint256",
          "name": "_uniqueId",
          "type": "uint256"
        }
      ],
      "name": "getProject",
      "outputs": [
        {
          "internalType": "string",
          "name": "",
          "type": "string"
        },
        {
          "internalType": "uint256",
          "name": "",
          "type": "uint256"
        },
        {
          "internalType": "uint256",
          "name": "",
          "type": "uint256"
        },
        {
          "internalType": "uint256",
          "name": "",
          "type": "uint256"
        },
        {
          "internalType": "address",
          "name": "",
          "type": "address"
        }
      ],
      "stateMutability": "view",
      "type": "function"
    },
    {
      "inputs": [
        {
          "internalType": "address",
          "name": "_addr",
          "type": "address"
        }
      ],
      "name": "getVoter",
      "outputs": [
        {
          "components": [
            {
              "internalType": "bool",
              "name": "_status",
              "type": "bool"
            },
            {
              "internalType": "uint256",
              "name": "_value",
              "type": "uint256"
            }
          ],
          "internalType": "struct SmartICO.Vote",
          "name": "",
          "type": "tuple"
        }
      ],
      "stateMutability": "view",
      "type": "function"
    },
    {
      "inputs": [
        {
          "internalType": "uint256",
          "name": "_newValue",
          "type": "uint256"
        }
      ],
      "name": "changeMax",
      "outputs": [
        {
          "internalType": "bool",
          "name": "",
          "type": "bool"
        }
      ],
      "stateMutability": "nonpayable",
      "type": "function"
    },
    {
      "inputs": [
        {
          "internalType": "uint256",
          "name": "_newValue",
          "type": "uint256"
        }
      ],
      "name": "changeMin",
      "outputs": [
        {
          "internalType": "bool",
          "name": "",
          "type": "bool"
        }
      ],
      "stateMutability": "nonpayable",
      "type": "function"
    }
  ],
  "bytecode": "0x60806040523480156200001157600080fd5b50600080819055506000600181905550670de0b6b3a76400006002819055506002546127106200004291906200009f565b6003819055506032600481905550600060058190555033600760006101000a81548173ffffffffffffffffffffffffffffffffffffffff021916908373ffffffffffffffffffffffffffffffffffffffff16021790555062000139565b6000620000ac8262000100565b9150620000b98362000100565b9250817fffffffffffffffffffffffffffffffffffffffffffffffffffffffffffffffff0483118215151615620000f557620000f46200010a565b5b828202905092915050565b6000819050919050565b7f4e487b7100000000000000000000000000000000000000000000000000000000600052601160045260246000fd5b61204080620001496000396000f3fe60806040526004361061010d5760003560e01c806391754a5d11610095578063d4c3eea011610064578063d4c3eea014610390578063d4f50f98146103bb578063dcc60128146103f8578063f0f3f2c814610423578063f88979451461046457610117565b806391754a5d146102cd578063b384abef1461030a578063c50b0fb014610347578063d0e30db01461037257610117565b8063629c52a9116100dc578063629c52a9146101f15780636ac5db191461021c5780637701ea4a146102475780638c7c9e0c146102775780638da5cb5b146102a257610117565b806312065fe01461011c578063121dbc31146101475780632e1a7d4d146101845780633bd0f412146101b457610117565b3661011757600080fd5b600080fd5b34801561012857600080fd5b5061013161048f565b60405161013e9190611bba565b60405180910390f35b34801561015357600080fd5b5061016e60048036038101906101699190611767565b6104d6565b60405161017b9190611b2a565b60405180910390f35b61019e60048036038101906101999190611767565b610542565b6040516101ab9190611b2a565b60405180910390f35b3480156101c057600080fd5b506101db60048036038101906101d69190611767565b61066f565b6040516101e89190611b2a565b60405180910390f35b3480156101fd57600080fd5b506102066106db565b6040516102139190611bba565b60405180910390f35b34801561022857600080fd5b506102316106e1565b60405161023e9190611bba565b60405180910390f35b610261600480360381019061025c9190611767565b6106e7565b60405161026e9190611b2a565b60405180910390f35b34801561028357600080fd5b5061028c610995565b6040516102999190611bba565b60405180910390f35b3480156102ae57600080fd5b506102b761099b565b6040516102c49190611a17565b60405180910390f35b3480156102d957600080fd5b506102f460048036038101906102ef919061170b565b6109c1565b6040516103019190611b2a565b60405180910390f35b34801561031657600080fd5b50610331600480360381019061032c9190611794565b610dcf565b60405161033e9190611b2a565b60405180910390f35b34801561035357600080fd5b5061035c611076565b6040516103699190611bba565b60405180910390f35b61037a61107c565b6040516103879190611b2a565b60405180910390f35b34801561039c57600080fd5b506103a5611114565b6040516103b29190611bba565b60405180910390f35b3480156103c757600080fd5b506103e260048036038101906103dd91906116de565b61111a565b6040516103ef9190611b9f565b60405180910390f35b34801561040457600080fd5b5061040d6111aa565b60405161041a9190611b08565b60405180910390f35b34801561042f57600080fd5b5061044a60048036038101906104459190611767565b61135f565b60405161045b959493929190611b45565b60405180910390f35b34801561047057600080fd5b506104796114f2565b6040516104869190611bba565b60405180910390f35b6000600860003373ffffffffffffffffffffffffffffffffffffffff1673ffffffffffffffffffffffffffffffffffffffff16815260200190815260200160002054905090565b6000600760009054906101000a900473ffffffffffffffffffffffffffffffffffffffff1673ffffffffffffffffffffffffffffffffffffffff163373ffffffffffffffffffffffffffffffffffffffff161461053257600080fd5b8160038190555060019050919050565b6000600860003373ffffffffffffffffffffffffffffffffffffffff1673ffffffffffffffffffffffffffffffffffffffff1681526020019081526020016000205482111561059057600080fd5b81600860003373ffffffffffffffffffffffffffffffffffffffff1673ffffffffffffffffffffffffffffffffffffffff16815260200190815260200160002060008282546105df9190611d72565b925050819055503373ffffffffffffffffffffffffffffffffffffffff166108fc839081150290604051600060405180830381858888f1935050505015801561062c573d6000803e3d6000fd5b507f4ce7033d118120e254016dccf195288400b28fc8936425acd5f17ce2df3ab708338360405161065e929190611a32565b60405180910390a160019050919050565b6000600760009054906101000a900473ffffffffffffffffffffffffffffffffffffffff1673ffffffffffffffffffffffffffffffffffffffff163373ffffffffffffffffffffffffffffffffffffffff16146106cb57600080fd5b8160048190555060019050919050565b60015481565b60035481565b6000600760009054906101000a900473ffffffffffffffffffffffffffffffffffffffff1673ffffffffffffffffffffffffffffffffffffffff163373ffffffffffffffffffffffffffffffffffffffff161461074357600080fd5b6000600181111561075757610756611f16565b5b6006600080548152602001908152602001600020600084815260200190815260200160002060070160009054906101000a900460ff16600181111561079f5761079e611f16565b5b146107a957600080fd5b60066000805481526020019081526020016000206000838152602001908152602001600020600401546006600080548152602001908152602001600020600084815260200190815260200160002060050154101561080657600080fd5b60006006600080548152602001908152602001600020600084815260200190815260200160002060020160009054906101000a900473ffffffffffffffffffffffffffffffffffffffff16905060006005549050600160008082825461086c9190611c91565b925050819055506000600181905550600060058190555060016006600080548152602001908152602001600020600086815260200190815260200160002060070160006101000a81548160ff021916908360018111156108cf576108ce611f16565b5b02179055508173ffffffffffffffffffffffffffffffffffffffff166108fc6005549081150290604051600060405180830381858888f1935050505015801561091c573d6000803e3d6000fd5b507f278dfa0993a7c16cb23af8e52276cf593d7b912c8b347bc608fa7655a1389972600760009054906101000a900473ffffffffffffffffffffffffffffffffffffffff1660016000546109709190611d72565b86846040516109829493929190611ac3565b60405180910390a1600192505050919050565b60025481565b600760009054906101000a900473ffffffffffffffffffffffffffffffffffffffff1681565b60006064600a8054905011156109d657600080fd5b600860003373ffffffffffffffffffffffffffffffffffffffff1673ffffffffffffffffffffffffffffffffffffffff16815260200190815260200160002054600454606484610a269190611ce7565b610a309190611d18565b1115610a3b57600080fd5b600354821115610a4a57600080fd5b600454606483610a5a9190611ce7565b610a649190611d18565b600860003373ffffffffffffffffffffffffffffffffffffffff1673ffffffffffffffffffffffffffffffffffffffff1681526020019081526020016000206000828254610ab29190611d72565b92505081905550604051806101000160405280600054815260200160015481526020013373ffffffffffffffffffffffffffffffffffffffff168152602001848152602001838152602001600081526020016000815260200160006001811115610b1f57610b1e611f16565b5b815250600660008054815260200190815260200160002060006001548152602001908152602001600020600082015181600001556020820151816001015560408201518160020160006101000a81548173ffffffffffffffffffffffffffffffffffffffff021916908373ffffffffffffffffffffffffffffffffffffffff1602179055506060820151816003019080519060200190610bc09291906114f8565b506080820151816004015560a0820151816005015560c0820151816006015560e08201518160070160006101000a81548160ff02191690836001811115610c0a57610c09611f16565b5b0217905550905050600a600660008054815260200190815260200160002060006001548152602001908152602001600020908060018154018082558091505060019003906000526020600020906008020160009091909190915060008201548160000155600182015481600101556002820160009054906101000a900473ffffffffffffffffffffffffffffffffffffffff168160020160006101000a81548173ffffffffffffffffffffffffffffffffffffffff021916908373ffffffffffffffffffffffffffffffffffffffff1602179055506003820181600301908054610cf390611e55565b610cfe92919061157e565b506004820154816004015560058201548160050155600682015481600601556007820160009054906101000a900460ff168160070160006101000a81548160ff02191690836001811115610d5557610d54611f16565b5b021790555050506001806000828254610d6e9190611c91565b925050819055507fadd61a43c252b306a4208ab29e2c367fb2df840585536948732953a4463831143360018054610da59190611d72565b600054338787604051610dbd96959493929190611a5b565b60405180910390a16001905092915050565b6000806001811115610de457610de3611f16565b5b6006600080548152602001908152602001600020600084815260200190815260200160002060070160009054906101000a900460ff166001811115610e2c57610e2b611f16565b5b14610e3657600080fd5b60011515600960008054815260200190815260200160002060003373ffffffffffffffffffffffffffffffffffffffff1673ffffffffffffffffffffffffffffffffffffffff16815260200190815260200160002060000160009054906101000a900460ff1615151415610ea957600080fd5b82600860003373ffffffffffffffffffffffffffffffffffffffff1673ffffffffffffffffffffffffffffffffffffffff1681526020019081526020016000206000828254610ef89190611d72565b925050819055506001600660008054815260200190815260200160002060008481526020019081526020016000206006016000828254610f389190611c91565b9250508190555082600660008054815260200190815260200160002060008481526020019081526020016000206005016000828254610f779190611c91565b925050819055508260056000828254610f909190611c91565b92505081905550604051806040016040528060011515815260200184815250600960008054815260200190815260200160002060003373ffffffffffffffffffffffffffffffffffffffff1673ffffffffffffffffffffffffffffffffffffffff16815260200190815260200160002060008201518160000160006101000a81548160ff021916908315150217905550602082015181600101559050507fdcf1c7e4da11afce0e4e7e8218d82a97b5ed38dd271b25754fa3cd7dcdca83323360005484866040516110649493929190611ac3565b60405180910390a16001905092915050565b60005481565b600034600860003373ffffffffffffffffffffffffffffffffffffffff1673ffffffffffffffffffffffffffffffffffffffff16815260200190815260200160002060008282546110cd9190611c91565b925050819055507f1b851e1031ef35a238e6c67d0c7991162390df915f70eaf9098dbf0b175a61983334604051611105929190611a32565b60405180910390a16001905090565b60055481565b61112261160b565b600960008054815260200190815260200160002060008373ffffffffffffffffffffffffffffffffffffffff1673ffffffffffffffffffffffffffffffffffffffff1681526020019081526020016000206040518060400160405290816000820160009054906101000a900460ff161515151581526020016001820154815250509050919050565b6060600a805480602002602001604051908101604052809291908181526020016000905b8282101561135657838290600052602060002090600802016040518061010001604052908160008201548152602001600182015481526020016002820160009054906101000a900473ffffffffffffffffffffffffffffffffffffffff1673ffffffffffffffffffffffffffffffffffffffff1673ffffffffffffffffffffffffffffffffffffffff16815260200160038201805461126c90611e55565b80601f016020809104026020016040519081016040528092919081815260200182805461129890611e55565b80156112e55780601f106112ba576101008083540402835291602001916112e5565b820191906000526020600020905b8154815290600101906020018083116112c857829003601f168201915b505050505081526020016004820154815260200160058201548152602001600682015481526020016007820160009054906101000a900460ff16600181111561133157611330611f16565b5b600181111561134357611342611f16565b5b81525050815260200190600101906111ce565b50505050905090565b60606000806000806006600080548152602001908152602001600020600087815260200190815260200160002060030160066000805481526020019081526020016000206000888152602001908152602001600020600401546006600080548152602001908152602001600020600089815260200190815260200160002060060154600660008054815260200190815260200160002060008a815260200190815260200160002060050154600660008054815260200190815260200160002060008b815260200190815260200160002060020160009054906101000a900473ffffffffffffffffffffffffffffffffffffffff1684805461145f90611e55565b80601f016020809104026020016040519081016040528092919081815260200182805461148b90611e55565b80156114d85780601f106114ad576101008083540402835291602001916114d8565b820191906000526020600020905b8154815290600101906020018083116114bb57829003601f168201915b505050505094509450945094509450945091939590929450565b60045481565b82805461150490611e55565b90600052602060002090601f016020900481019282611526576000855561156d565b82601f1061153f57805160ff191683800117855561156d565b8280016001018555821561156d579182015b8281111561156c578251825591602001919060010190611551565b5b50905061157a9190611627565b5090565b82805461158a90611e55565b90600052602060002090601f0160209004810192826115ac57600085556115fa565b82601f106115bd57805485556115fa565b828001600101855582156115fa57600052602060002091601f016020900482015b828111156115f95782548255916001019190600101906115de565b5b5090506116079190611627565b5090565b6040518060400160405280600015158152602001600081525090565b5b80821115611640576000816000905550600101611628565b5090565b600061165761165284611bfa565b611bd5565b90508281526020810184848401111561167357611672611fa8565b5b61167e848285611e13565b509392505050565b60008135905061169581611fdc565b92915050565b600082601f8301126116b0576116af611fa3565b5b81356116c0848260208601611644565b91505092915050565b6000813590506116d881611ff3565b92915050565b6000602082840312156116f4576116f3611fb2565b5b600061170284828501611686565b91505092915050565b6000806040838503121561172257611721611fb2565b5b600083013567ffffffffffffffff8111156117405761173f611fad565b5b61174c8582860161169b565b925050602061175d858286016116c9565b9150509250929050565b60006020828403121561177d5761177c611fb2565b5b600061178b848285016116c9565b91505092915050565b600080604083850312156117ab576117aa611fb2565b5b60006117b9858286016116c9565b92505060206117ca858286016116c9565b9150509250929050565b60006117e0838361191a565b905092915050565b6117f181611da6565b82525050565b61180081611da6565b82525050565b600061181182611c3b565b61181b8185611c5e565b93508360208202850161182d85611c2b565b8060005b85811015611869578484038952815161184a85826117d4565b945061185583611c51565b925060208a01995050600181019050611831565b50829750879550505050505092915050565b61188481611db8565b82525050565b61189381611db8565b82525050565b6118a281611e01565b82525050565b60006118b382611c46565b6118bd8185611c6f565b93506118cd818560208601611e22565b6118d681611fb7565b840191505092915050565b60006118ec82611c46565b6118f68185611c80565b9350611906818560208601611e22565b61190f81611fb7565b840191505092915050565b60006101008301600083015161193360008601826119f9565b50602083015161194660208601826119f9565b50604083015161195960408601826117e8565b506060830151848203606086015261197182826118a8565b915050608083015161198660808601826119f9565b5060a083015161199960a08601826119f9565b5060c08301516119ac60c08601826119f9565b5060e08301516119bf60e0860182611899565b508091505092915050565b6040820160008201516119e0600085018261187b565b5060208201516119f360208501826119f9565b50505050565b611a0281611df7565b82525050565b611a1181611df7565b82525050565b6000602082019050611a2c60008301846117f7565b92915050565b6000604082019050611a4760008301856117f7565b611a546020830184611a08565b9392505050565b600060c082019050611a7060008301896117f7565b611a7d6020830188611a08565b611a8a6040830187611a08565b611a9760608301866117f7565b8181036080830152611aa981856118e1565b9050611ab860a0830184611a08565b979650505050505050565b6000608082019050611ad860008301876117f7565b611ae56020830186611a08565b611af26040830185611a08565b611aff6060830184611a08565b95945050505050565b60006020820190508181036000830152611b228184611806565b905092915050565b6000602082019050611b3f600083018461188a565b92915050565b600060a0820190508181036000830152611b5f81886118e1565b9050611b6e6020830187611a08565b611b7b6040830186611a08565b611b886060830185611a08565b611b9560808301846117f7565b9695505050505050565b6000604082019050611bb460008301846119ca565b92915050565b6000602082019050611bcf6000830184611a08565b92915050565b6000611bdf611bf0565b9050611beb8282611e87565b919050565b6000604051905090565b600067ffffffffffffffff821115611c1557611c14611f74565b5b611c1e82611fb7565b9050602081019050919050565b6000819050602082019050919050565b600081519050919050565b600081519050919050565b6000602082019050919050565b600082825260208201905092915050565b600082825260208201905092915050565b600082825260208201905092915050565b6000611c9c82611df7565b9150611ca783611df7565b9250827fffffffffffffffffffffffffffffffffffffffffffffffffffffffffffffffff03821115611cdc57611cdb611eb8565b5b828201905092915050565b6000611cf282611df7565b9150611cfd83611df7565b925082611d0d57611d0c611ee7565b5b828204905092915050565b6000611d2382611df7565b9150611d2e83611df7565b9250817fffffffffffffffffffffffffffffffffffffffffffffffffffffffffffffffff0483118215151615611d6757611d66611eb8565b5b828202905092915050565b6000611d7d82611df7565b9150611d8883611df7565b925082821015611d9b57611d9a611eb8565b5b828203905092915050565b6000611db182611dd7565b9050919050565b60008115159050919050565b6000819050611dd282611fc8565b919050565b600073ffffffffffffffffffffffffffffffffffffffff82169050919050565b6000819050919050565b6000611e0c82611dc4565b9050919050565b82818337600083830152505050565b60005b83811015611e40578082015181840152602081019050611e25565b83811115611e4f576000848401525b50505050565b60006002820490506001821680611e6d57607f821691505b60208210811415611e8157611e80611f45565b5b50919050565b611e9082611fb7565b810181811067ffffffffffffffff82111715611eaf57611eae611f74565b5b80604052505050565b7f4e487b7100000000000000000000000000000000000000000000000000000000600052601160045260246000fd5b7f4e487b7100000000000000000000000000000000000000000000000000000000600052601260045260246000fd5b7f4e487b7100000000000000000000000000000000000000000000000000000000600052602160045260246000fd5b7f4e487b7100000000000000000000000000000000000000000000000000000000600052602260045260246000fd5b7f4e487b7100000000000000000000000000000000000000000000000000000000600052604160045260246000fd5b600080fd5b600080fd5b600080fd5b600080fd5b6000601f19601f8301169050919050565b60028110611fd957611fd8611f16565b5b50565b611fe581611da6565b8114611ff057600080fd5b50565b611ffc81611df7565b811461200757600080fd5b5056fea26469706673582212200dffc29a999e088c6e8e9ad2963203fda1e455efd1d1a799b336eca2e2f0f29664736f6c63430008070033",
  "immutableReferences": {},
  "source": "// SPDX-License-Identifier: MIT\npragma solidity ^0.8.0;\n\n/// @title Smart\n/// @notice Smart ICO selection Platform\n/// @dev See the README.md file.\ncontract SmartICO {\n        /// @notice Voting season. A new Season begins after the winner is selected.\n        uint public season;\n        /// @notice A unique ID for the project.\n        uint public uniqueId;\n        /// @notice ether in wei.\n        uint public eth;\n        /// @notice The maximum ether that can be considered for the cap.\n        uint public max;\n        /// @notice The minimum ether that can be considered for the cap. => (%)\n        uint public min;\n        /// @notice Total Capital Voted in This Season.\n        uint public totalValue;\n        /// @notice A mapping for projects.\n        mapping (uint => mapping (uint => Project)) private Projects;\n\n        address public owner;\n        /// @notice A mapping for user account balances.\n        mapping (address => uint) private balances;\n        /// @notice A mapping for voters.\n        mapping (uint => mapping (address => Vote)) private Voters;\n        enum State {\n                Active,\n                Win\n        }\n        struct Project {\n                uint _season;\n                uint _uniqueId;\n                address _owner;\n                string _title;\n                uint _softCap;\n                uint _capital;\n                uint _votes;\n                State _state;\n        }\n        /// @notice A list of projects.\n        Project[] private ProjectsList;\n        struct Vote {\n                bool _status;\n                uint _value;\n        }\n        event LogWithdraw(address _addr, uint _value);\n        event LogDeposit(address _addr, uint _value);\n        event LogCreated(address _addr, uint _uniqueId, uint _season, address _owner, string _title, uint _softCap);\n        event LogVoted(address _addr, uint _season, uint _uniqueId, uint _capital);\n        event LogPicked(address _addr, uint _season, uint _uniqueId, uint _total);\n        /// @dev Only owners have access.\n        modifier onlyOwner() {\n                require(msg.sender == owner);\n                _;\n        }\n        /// @dev Checks if the project is active or not.\n        modifier active(uint _uniqueId) {\n                require(Projects[season][_uniqueId]._state == State.Active);\n                _;\n        }\n        /// @notice set values.\n        /// @dev Some variables may change in the future.\n        constructor () {\n                season = 0;\n                uniqueId = 0;\n                eth = 1e18;\n                max = 10000 * eth;\n                min = 50;\n                totalValue = 0;\n                owner = msg.sender;\n        }\n        fallback () external payable {\n                revert();\n        }\n        receive () external payable {\n                revert();\n        }\n        /// @dev Deposit function.\n        /// @return bool => true\n        function deposit () public payable returns (bool) {\n                balances[msg.sender] += msg.value;\n                emit LogDeposit(msg.sender, msg.value);\n                return true;\n        }\n        /// @dev Withdrawal function.\n        /// @param _value The amount you intend to withdraw.\n        /// @return bool => true\n        function withdraw (uint _value) public payable returns (bool) {\n                require(_value <= balances[msg.sender]);\n                balances[msg.sender] -= _value;\n                payable(msg.sender).transfer(_value);\n                emit LogWithdraw(msg.sender, _value);\n                return true;\n        }\n        /// @dev A function that creates a project with a unique ID and adds it to the list and mapping.\n        /// @param __title Project title.\n        /// @param __softCap Project Softcap.\n        /// @return bool => true\n        function createProject (string memory __title, uint __softCap) public returns (bool) {\n                require(ProjectsList.length <= 100);\n                require((__softCap / 100) * min <= balances[msg.sender]);\n                require(__softCap <= max);\n                //require(__softCap >= minEth);\n                balances[msg.sender] -= (__softCap / 100) * min;\n                Projects[season][uniqueId] = Project({\n                        _season : season,\n                        _uniqueId : uniqueId,\n                        _owner : msg.sender,\n                        _title : __title,\n                        _softCap : __softCap,\n                        _capital: 0,\n                        _votes : 0,\n                        _state : State.Active\n                });\n                ProjectsList.push(Projects[season][uniqueId]);\n                uniqueId += 1;\n                emit LogCreated(msg.sender, uniqueId - 1, season, msg.sender, __title, __softCap);\n                return true;\n        }\n        /// @notice Project voting function.\n        /// @dev The project must be open. Only the current season is considered.\n        /// @param _val The amount you intend to invest.\n        /// @param _uniqueId Unique ID of the project you intend to vote for.\n        /// @return bool => true\n        function vote (uint _val, uint _uniqueId) public returns (bool) {\n                require(Projects[season][_uniqueId]._state == State.Active);\n                require(Voters[season][msg.sender]._status != true);\n                balances[msg.sender] -= _val;\n                Projects[season][_uniqueId]._votes += 1;\n                Projects[season][_uniqueId]._capital += _val;\n                totalValue += _val;\n                Voters[season][msg.sender] = Vote({\n                        _status : true,\n                        _value : _val\n                });\n                emit LogVoted(msg.sender, season, _uniqueId, _val);\n                return true;\n        }\n        /// @notice Select the winner.\n        /// @dev Due to the need for many loops to decentralize this function, this centralized function is written and called by the owners.\n        /// @param _uniqueId Project unique ID.\n        /// @return bool => true\n        function pick (uint _uniqueId) public payable onlyOwner returns (bool) {\n                require(Projects[season][_uniqueId]._state == State.Active);\n                require(Projects[season][_uniqueId]._capital >= Projects[season][_uniqueId]._softCap);\n                address _to = Projects[season][_uniqueId]._owner;\n                uint mem = totalValue;\n                season += 1;\n                uniqueId = 0;\n                totalValue = 0;\n                Projects[season][_uniqueId]._state = State.Win;\n                payable(_to).transfer(totalValue);\n                emit LogPicked(owner, season - 1, _uniqueId, mem);\n                return true;\n        }\n        /// @notice Get data functions to communicate with the contract.\n        /// @dev return list of projects for other contracts or UI.\n        /// @return Porject list\n        function getProjects () public view returns (Project[] memory) {\n                return ProjectsList;\n        }\n        /// @notice Get data functions to communicate with the contract.\n        /// @return balance of user\n        function getBalance () public view returns (uint) {\n                return balances[msg.sender];\n        }\n        /// @notice Get data functions to communicate with the contract.\n        /// @dev Return project related to Unique ID.\n        /// @param _uniqueId project unique ID\n        /// @return Project.\n        function getProject (uint _uniqueId) public view returns (string memory, uint, uint, uint, address) {\n                return (Projects[season][_uniqueId]._title, Projects[season][_uniqueId]._softCap, Projects[season][_uniqueId]._votes, Projects[season][_uniqueId]._capital, Projects[season][_uniqueId]._owner);\n        }\n        /// @notice Get data functions to communicate with the contract.\n        /// @dev Return voter related to address.\n        /// @param _addr address of voter.\n        /// @return Vote\n        function getVoter (address _addr) public view returns (Vote memory) {\n                return Voters[season][_addr];\n        }\n\n        function changeMax (uint _newValue) public onlyOwner returns (bool) {\n                max = _newValue;\n                return true;\n        }\n        function changeMin (uint _newValue) public onlyOwner returns (bool) {\n                min = _newValue;\n                return true;\n        }\n}\n",
  "sourcePath": "/home/amirali/Desktop/Project/contracts/SmartICO.sol",
  "compiler": {
    "name": "solc",
    "version": "0.8.7+commit.e28d00a7.Emscripten.clang"
  },
  "schemaVersion": "3.4.3",
  "updatedAt": "2021-11-07T16:06:40.012Z",
  "devdoc": {
    "details": "See the README.md file.",
    "kind": "dev",
    "methods": {
      "constructor": {
        "details": "Some variables may change in the future."
      },
      "createProject(string,uint256)": {
        "details": "A function that creates a project with a unique ID and adds it to the list and mapping.",
        "params": {
          "__softCap": "Project Softcap.",
          "__title": "Project title."
        },
        "returns": {
          "_0": "bool => true"
        }
      },
      "deposit()": {
        "details": "Deposit function.",
        "returns": {
          "_0": "bool => true"
        }
      },
      "getBalance()": {
        "returns": {
          "_0": "balance of user"
        }
      },
      "getProject(uint256)": {
        "details": "Return project related to Unique ID.",
        "params": {
          "_uniqueId": "project unique ID"
        },
        "returns": {
          "_0": "Project."
        }
      },
      "getProjects()": {
        "details": "return list of projects for other contracts or UI.",
        "returns": {
          "_0": "Porject list"
        }
      },
      "getVoter(address)": {
        "details": "Return voter related to address.",
        "params": {
          "_addr": "address of voter."
        },
        "returns": {
          "_0": "Vote"
        }
      },
      "pick(uint256)": {
        "details": "Due to the need for many loops to decentralize this function, this centralized function is written and called by the owners.",
        "params": {
          "_uniqueId": "Project unique ID."
        },
        "returns": {
          "_0": "bool => true"
        }
      },
      "vote(uint256,uint256)": {
        "details": "The project must be open. Only the current season is considered.",
        "params": {
          "_uniqueId": "Unique ID of the project you intend to vote for.",
          "_val": "The amount you intend to invest."
        },
        "returns": {
          "_0": "bool => true"
        }
      },
      "withdraw(uint256)": {
        "details": "Withdrawal function.",
        "params": {
          "_value": "The amount you intend to withdraw."
        },
        "returns": {
          "_0": "bool => true"
        }
      }
    },
    "title": "Smart",
    "version": 1
  },
  "userdoc": {
    "kind": "user",
    "methods": {
      "constructor": {
        "notice": "set values."
      },
      "eth()": {
        "notice": "ether in wei."
      },
      "getBalance()": {
        "notice": "Get data functions to communicate with the contract."
      },
      "getProject(uint256)": {
        "notice": "Get data functions to communicate with the contract."
      },
      "getProjects()": {
        "notice": "Get data functions to communicate with the contract."
      },
      "getVoter(address)": {
        "notice": "Get data functions to communicate with the contract."
      },
      "max()": {
        "notice": "The maximum ether that can be considered for the cap."
      },
      "min()": {
        "notice": "The minimum ether that can be considered for the cap. => (%)"
      },
      "pick(uint256)": {
        "notice": "Select the winner."
      },
      "season()": {
        "notice": "Voting season. A new Season begins after the winner is selected."
      },
      "totalValue()": {
        "notice": "Total Capital Voted in This Season."
      },
      "uniqueId()": {
        "notice": "A unique ID for the project."
      },
      "vote(uint256,uint256)": {
        "notice": "Project voting function."
      }
    },
    "notice": "Smart ICO selection Platform",
    "version": 1
  }
}